:100F5700CAA3D3E000B5C3B7D600C9DFCBC0C1CBA6
:100F670000D3CECFB7BDE1CAF800B5C8BCB6D1A192
:100F7700D4F100317E3400312EC6D5CDA8C4A3CA22
:100F8700BD00322ECBABC8CBC4A3CABD00332ECB1A
:100F9700FEC4A3CABD00536E616B6531CAA400537A
:100FA7006E616B6532CAA400C6BDBED600CCB0B3B5
:040FB700D4C9DF00BA
:10135F0001080002090001010B00014E00014D05BB
:0B13A100758901E4F58CF58AD28C22DE
:1012FC00121073AD8A7C00EF2DFFEC3EFE1210B580
:0F130C001210737C027D01120711AE04AF05228F
:0C121500754F02755201F50B7F887E13A7
:10122100E4FDFCC3ED9FEC9E5015E4FBFA0BBB0003
:0F123100010AEB640A4A70F50DBD00010C80E460
:01124000228B
:0F138500758901E4F58CF58AD28CD2A9D2AF22FA
:03000B00020E3DA5
:100E3D00C0E0C0F0C083C082C0D075D000C000C07B
:100E4D0001C002C003C004C005C006C007120C7863
:100E5D00EF14B40800504C900E7275F003A4C583C6
:100E6D0025F0C58373020E8A020E8F020E94020EB8
:100E7D0099020E9E020EA3020EA8020EAD750B0175
:100E8D008021750B02801C750B038017750B048078
:100E9D0012750B05800D750B068008750B07800309
:100EAD00750B08D007D006D005D004D003D002D0E2
:0E0EBD0001D000D0D0D082D083D0F0D0E0326F
:10093400755401E55475F003A4FF7B01E4FD121224
:1009440041E55475F003A4FF7B017D3C121241057F
:1009540054E554C3941C40DBE4F554E55475F003AA
:10096400A4FD7B017F03121241E55475F003A4FD3D
:100974007B017F511212410554E554C3941540DBA9
:100984007567017B2C7D1E7F541212B77567017B3E
:100994002C7D3E7F541212B77BFF7A0F79577D026C
:1009A4007F0612110BE54E6401600D7BFF7A0F790F
:1009B4005CE4FD7F0612110BE54E6402703475543D
:1009C40001E55475F003A4FD7B017F2A1212410551
:1009D40054E554C3941540E9755401E55475F00386
:1009E400A4FF7B017D1E1212410554E554C3941CDF
:0209F40040E9D8
:0109F60022DE
:10129200E50875F00A844430F557E50875F00A84CC
:1012A200E5F04430F558E4F559FB7A0079577D01B1
:0512B2007F0602110B94
:10101800E54C24FEFBE54B34FFFA7C007D64AF030E
:10102800FE1206BCEF4430F55D7C007D64AF03AE74
:10103800021206BC7E007F0ACFCDCFCECCCE1206E0
:10104800BCEF4430F55EE54C24FEFFE54B34FFFE73
:101058007C007D0A1206BCED4430F55FE4F560FBC8
:0B1068007A00795D7D037F0602110B0A
:1011A100E4FDAF51AE501211E5E4F557E557D39583
:1011B1004F5015E55725E0240CF8E6FE08E6FFE45C
:1011C100FD1211E5055780E47BFF7A0F79617D01FE
:1011D1007F0112110B7BFF7A0F79687D027F01126B
:0411E100110B80FE70
:100D1000E4FF121156E4F50BF54E7BFF7A0F797163
:100D20007D017F0212110B7BFF7A0F797A7D027FA2
:100D30000312110BE50B60FCE50B24FE6010146040
:100D40000814700F754D14800D754D0A8008754D8F
:100D5000058003754D01E412121BE4FF1211567B4E
:100D6000FF7A0F797E7D017F0112110B7BFF7A0FD5
:100D700079897D027F0112110B7BFF7A0F79947DB7
:100D8000037F0112110BE50B60FCE50B24FD6008ED
:100D900004700A754E028008754E018003E4F54E1A
:070DA0007F887E130212217F
:080BDC007A00790CAD4FAF481F
:100BE4008D5D8B5E8A5F8960EF24FE601E14603326
:100BF40014704DAB5EAA5FA96075F002E55DA4F5C3
:100C04008285F08312077224E5802EAB5EAA5FA969
:100C14006075F002E55DA4F58285F0831207722405
:100C24001B8033AB5EAA5FA96075F002E55DA4F595
:100C34008285F08312077224FFFDE5F034FF801AE9
:100C4400AB5EAA5FA96075F002E55DA4F58285F04C
:100C5400831207722401FDE435F0FCE55D2401FFF5
:100C6400E433FEEF25E0FFEE338F82F583EC8DF065
:040C74001207C92278
:080B3D007B007A00790CAF4F38
:080B45008F5D8B5E8A5F896001
:100B4D00E4F562EF2401FFE433FEEF25E0FFEE3321
:100B5D008F82F583120772FFAEF0C3EE648094802E
:100B6D00400BD3EF9400EE648094824004056280C4
:100B7D00177C007D1B120711ED4C70040562800877
:100B8D00ED641A4C70020562E4F561E561D3955D83
:100B9D00503AE55D2401FFE433FEEF25E0FFEE332F
:100BAD00AB5EAA5FA9608F82F583120772FFAEF06C
:100BBD0075F002E561A4F58285F083120772B50721
:0E0BCD0007E5F0B506020562056180BFAF6264
:010BDB0022F7
:0B0DA7008F5DE55264016003020E3214
:100DB200E4F55F1212FC8E508F51E4F55EE55ED3CE
:100DC200954F5021E55E25E0240CF8E6FE08E6B5D5
:100DD2005108EEB550047F0180027F00E55F2FF5D8
:100DE2005F055E80D8AE50AF517C007D1B1206BC01
:100DF200ED4C6006ED641A4C7002055FE54E64012D
:100E0200702AF55EE55ED3955D5021E55E25E0240E
:100E12002AF8E6FE08E6B55108EEB550047F0180D7
:100E2200027F00E55F2FF55F055E80D8E55F708089
:0B0E3200AF51AE50120FBBE4F552228E
:1007F600E4F554121215750C00750D1F7D01AF0D31
:10080600AE0C1211E5750E00750F3A7D01AF0FAEF5
:100816000E1211E57510007511557D01AF11AE1060
:100826001211E5754802754902E4F54A754B0175E2
:100836004C1BE54C154C7002154BE4FF120DA785B9
:100846004849E50B14603414602324FE60110470DB
:1008560038E54964046035854849754802802DE5C8
:100866004964026027854849754804801FE5496444
:100876000160198548497548038011E5496403609C
:100886000B85484975480180038549487B00120B52
:10089600DC120B3D8F4AE54A700BD3E54C9401E51B
:1008A6004B940050031211A1E54F25E0240EF8E603
:1008B600FE08E6FFB55107EEB550037552017D01FE
:1008C6001211E5AD52AF0DAE0C1211E5E552B401B1
:1008D60020C3E4954FFFE49400FE7C007D0A1206D7
:1008E600AAEF2424F54CEE3401F54B0508054F809C
:1008F60026E4F554E554D3954F501CE55425E024E1
:100906000EF8E6FE08E6FFE55425E0240CF8A606F8
:1009160008A607055480DD121292121018AF4D7EFC
:0E092600007C037DE81206AA12122102083896
:10000E0075540075550075562A755902755A02E4D5
:10001E00F55B755C02121215750C00750D1F7D01D6
:10002E00AF0DAE0C1211E5750E00750F3A7D01AFD6
:10003E000FAE0E1211E57510007511557D01AF1141
:10004E00AE101211E5AB54AA55A956E475F0311253
:10005E0007AAAB54AA55A956120747FFAEF07D0169
:10006E001211E5AB54AA55A956900002E475F04C56
:10007E001207C9900002120772FFAEF07D01121135
:10008E00E5AB54AA55A956900004E475F067120723
:10009E00C9900004120772FFAEF07D011211E575D2
:1000AE004802754902E4F54A754B01754C2FE54C33
:1000BE00154C7002154BAF5C120DA7E50B64046076
:1000CE000BE50B64066005E50BB4080FE549B401BA
:1000DE0005754804801EE549148021E50B64036014
:1000EE000BE50B64076005E50BB40516E549B40492
:1000FE0008754801854849800CE54904F548F549DD
:10010E008003854948E50B6402600BE50B640760CC
:10011E0005E50BB4080CE559B40102801BE5591432
:10012E008021E50B6401600BE50B64056005E50BB2
:10013E00B40616E559B40408755A01855A59800C4F
:10014E00E55904F55AF559800385595AE4F50BFB28
:10015E00120BDCAB54AA55A956AD5CAF5A120BE488
:10016E00120B3D8F4AE4F557E557D3955C502EABF5
:10017E0054AA55A95675F002E557A4F58285F08369
:10018E00120772FFE54F25E0240EF8E6FC08E6B5EF
:10019E000707E5F0B50402054A055780CBAB54AA14
:1001AE0055A956AF5C120B458F5BE4F557E557D357
:1001BE00954F5034E55C2401FFE433FEEF25E0FF5C
:1001CE00EE33AB54AA55A9568F82F583120772FFF0
:1001DE00E55725E0240CF8E6FC08E6B50706ECB575
:1001EE00F002055B055780C5E54A255BFFE4334FFA
:1001FE006052E54A7006E55B60028017E54A600CC6
:10020E00E55B70087BFF7A0F79A68022E54FD395C8
:10021E005C40087BFF7A0F799D8013E54FC3955C98
:10022E007BFF50067A0F79A680047A0F79AF7D0195
:10023E007F0112110B7BFF7A0F79687D027F01120D
:10024E00110B80FEE4F558E54F25E0240EF8E6FC90
:10025E0008E6FDB5510CECB5500875520175580104
:10026E008029E55C2401FFE433FEEF25E0FFEE3349
:10027E00AB54AA55A9568F82F583120772B5510B4E
:10028E00E5F0B55006755201755802AF05AE047D06
:10029E00011211E5E5526009E558B401047D0180B3
:1002AE00027D00AF0DAE0C1211E5E55C2401FFE4FA
:1002BE0033FEEF25E0FFEE33AB54AA55A9568F82DD
:1002CE00F583120772FFAEF07D011211E5AB54AA51
:1002DE0055A956120747FFAEF0E5526009E558B42E
:1002EE0002047D0180027D001211E5E552B4011673
:1002FE00E558B40111C3E54C954FF54CE54B940010
:10030E00F54B054F8026E4F557E557D3954F501C16
:10031E00E55725E0240EF8E6FE08E6FFE55725E052
:10032E00240CF8A60608A607055780DDE552B40191
:10033E0016E558B40211C3E54C955CF54CE54B94AB
:10034E0000F54B055C803DE4F557E557D3955C50C1
:10035E0033E5572401FFE433FEEF25E0FFEE33AB28
:10036E0054AA55A9568F82F583120772FFAEF07507
:10037E00F002E557A4F58285F083EE8FF01207C9DF
:10038E00055780C6121018AF4D7E007C037DE81213
:08039E0006AA1212210200BCA4
:1003A600E4F554121215750C00750D447B017D01A0
:1003B600AF0DAE0C120A9B750E00750F7C7B017D8E
:1003C60001AF0FAE0E120A9B7510007511B47B01BA
:1003D6007D01AF11AE10120A9B754802754902E401
:1003E600F54A754B01754C1BE54C154C7002154BC7
:0603F600E5526401706E87
:1003FC00E4F5561212FC8E508F51E4F555E555D3A9
:10040C00954F5021E55525E0240CF8E6FE08E6B59D
:10041C005108EEB550047F0180027F00E5562FF5A0
:10042C0056055580D87E00E5515403FF7C007D0EA7
:10043C001206BCED4C6006ED640D4C70020556C303
:10044C00E55194F4E550940140020556E55670A030
:10045C007B01E4FDAF51AE50120A9BE4F552E50B63
:10046C0014602514601014600814703275480580EF
:10047C0030754806802BE549B40108754804754968
:10048C0004801EE549148010E549B4040875480140
:10049C00754901800CE54904F548F5498003854907
:1004AC0048E4F50BE54814604814602314602F24CD
:1004BC00FE60501470030205462402600302058698
:1004CC00E54F25E0240CF8E6FE08E624C8801CE580
:1004DC004F25E0240CF8E6FE08E624388020E54F92
:1004EC0025E0240CF8E6FE08E624FCFFEE34FF8041
:1004FC007CE54F25E0240CF8E6FE08E62404FFE436
:10050C003E806AE54F25E0240CF8E6FA08E6FB7C11
:10051C00007D04FFAE02120711ED64034C7009EB71
:10052C0024FDFFEA34FF8010E54F25E0240CF8E6AB
:10053C00FE08E62401FFE43E8033E54F25E0240C61
:10054C00F8E6FA08E6FB7C007D04FFAE0212071108
:10055C00ED4C7008EB2403FFE43A8011E54F25E0E5
:10056C00240CF8E6FE08E624FFFFEE34FFFEE54F10
:10057C0025E0240EF8A60608A607E54F25E0240E74
:10058C00F8E6FE08E6FFC3EE64809480400BD3EFE0
:10059C0094F7EE648094814004054A801E7C007DB3
:1005AC00041207117C007D0E120711ED4C7004052E
:1005BC004A8008ED640D4C7002054AE4F554E5548C
:1005CC00C3954F5024E54F25E0240EF8E6FE08E6CF
:1005DC00FFE55425E0240CF8E6FC08E6B50706EC2C
:1005EC00B50602054A055480D5E54A700BD3E54C97
:1005FC009401E54B940050031211A1E54F25E02422
:10060C000EF8E6FE08E6FFB55107EEB5500375523D
:10061C00017B017D01120A9BAB527D01AF0DAE0C2B
:10062C00120A9BE552B40120C3E4954FFFE49400F9
:10063C00FE7C007D0A1206AAEF2424F54CEE340150
:10064C00F54B0508054F8026E4F554E554D3954F3A
:10065C00501CE55425E0240EF8E6FE08E6FFE554B0
:10066C0025E0240CF8A60608A607055480DD121216
:10067C0092121018AF4D7E007C037DE81206AA1270
:05068C0012210203EE43
:1010C0001213851213A11213347BFF7A0F79B47DAA
:1010D000017F0212110B12121D1212217F01121236
:1010E00077E4FF121156120D107F011212771209C8
:1010F00034E54E14600814700A1203A6800812002A
:0B1100000E80031207F61211A180FE02
:1012DC000001000200040008001000200040008003
:1012EC0001000200040008001000200040008000F3
:03136F00016F000B
:101373007580FFC2A6D2A5D2A700E5805480FFC224
:01138300A7C2
:011384002246
:10131B00AE07121373EF70FAD2A6C2A5C2A70000D4
:09132B008E80D2A70000C2A722A7
:10134A00121373EF70FA7580FFD2A6D2A5D2A70046
:04135A00AF80C2A7F7
:01135E00226C
:0B126C00ED2480FF121277E56A29FFD5
:10127700AE07121373EF70FAC2A6C2A5C2A7000089
:0B1287008E800000D2A70000C2A7224A
:10110B00AE07EDD394035042EE9407503DC2AFEDC2
:10111B0014600F14601114601324037016EE2480F6
:10112B00800DEE24908008EE24888003EE2498FF37
:10113B00121277120691FFD39400400C12131B74FA
:0B114B000129F9E43AFA80EBD2AF2250
:0409F7008B69A90758
:1009FB00E9C394804003020A9AEDC394404003027A
:100A0B000A9AE9540FFFC3740F9FFCE9C4540FF902
:100A1B00EDC394205005756A808003756A88530571
:100A2B001FC2AF7F3612127712126C12134AAB072A
:100A3B007A0012134AEF7B00FA12134AEFFBD2AF84
:100A4B00E569B40117EC25E024DCF582E43412F5FA
:100A5B0083E49342027401934203801DEC25E0244E
:100A6B00DCF582E43412F583E493FE740193F4FF16
:100A7B00EEF4FEEF5203EE5202C2AF12126CAF0253
:0F0A8B0012131BAF0312131B7F30121277D2AF5F
:010A9A002239
:0612B7008F648D658B665B
:1012BD00E566601AE4F568E568C395665010E56467
:0E12CD002568FFAB67AD651209F7056880E97B
:0112DB0022F0
:0611E5008D5DAB07AA06B8
:1011EB007C007D1B120711ED75F003A42403F55E43
:1011FB00AE02AF037C007D1B120711EF75F003A449
:0A120B002403FDAB5DAF5E0212414B
:060A9B008E578F58AA05DA
:100AA1007C007D041207117C007D0E1207118D5907
:100AB100AE57AF587C007D04120711ED64014C6004
:100AC10006ED64024C7006740D2559F559E559750A
:100AD100F003A42403F559AE57AF587C007D3812BA
:100AE10007118F5AAE57AF587C007D04120711EDE4
:100AF10064024C6006ED64034C7006740A255AF5D5
:100B01005AE55A75F003A42403F55ABA0106FDAF5C
:100B110059021241E55904FF7B01AD5A1209F7E56B
:100B21005904FFE55A2402FD7B011209F7E55A0435
:0B0B3100FD7567017B03AF591212B77E
:010B3C002296
:040FBB00AB07AA06D0
:100FBF007C007D1B1207117E007F031206AAEF240F
:100FCF0003F561E43EF560AE02AF037C007D1B12BA
:100FDF0007117C007D031206AAEF2403F563E43E9C
:100FEF00F562E56104FFAD637B011209F7E561046A
:100FFF00FFE5632402FD7B011209F7AF61E563048E
:09100F00FD7567017B030212B7B5
:101241008F5F8D608B618561677B031212B7E560EB
:1012510004FD8561677B03AF5F1212B7E56024026D
:0B126100FD8561677B03AF5F0212B7E1
:10115600EF20E004E4FD80027DFF7F36121277E483
:10116600FCECC39409502FE4FBE4FAC2AFEB2480F5
:10117600FF121277EA24802CFF121277AF051213A2
:101186001BAF0512131BD2AF0ABA08DF0BBB20D95F
:0B11960074082CFC80CB7F3002127725
:10133400D2B27F301212777F0C1212777F01121211
:06134400777F060212771C
:100C7800E4F55375900FE590640F7003020D0D12A3
:100C88001394E590640F607A75900FAF90EF24FB92
:100C9800B40A005054900CAB75F003A4C58325F03A
:100CA800C58373020CDD020CE2020CC9020CF102CE
:100CB8000CE7020CEC020CCE020CF1020CD3020C75
:100CC800D875700180267570028021757003801CAC
:100CD80075700480177570058012757006800D7523
:100CE800700780087570088003E4F570C3E55364E5
:100CF8008094B2500DE590640F6007121394055369
:070D080080EAAF70227F00BA
:010D0F0022C1
:0C1394007F017E267D82DDFEDEFADFF6A2
:0113A000222A
:03000000020ECB22
:0C0ECB00787FE4F6D8FD758170020F12EC
:10069100BB010689828A83E0225002E722BBFE0267
:0906A100E32289828A83E493229A
:1006AA00EF8DF0A4A8F0CF8CF0A428CE8DF0A42E64
:0206BA00FE221E
:1006BC00BC000BBE0029EF8DF084FFADF022E4CC22
:1006CC00F875F008EF2FFFEE33FEEC33FCEE9DECEB
:1006DC00984005FCEE9DFE0FD5F0E9E4CEFD22ED31
:1006EC00F8F5F0EE8420D21CFEADF075F008EF2F7B
:1006FC00FFED33FD4007985006D5F0F222C398FD6C
:05070C000FD5F0EA2208
:10071100C2D5EC30E709B2D5E4C39DFDE49CFCEE03
:1007210030E715B2D5E4C39FFFE49EFE1206BCC3B9
:10073100E49DFDE49CFC80031206BC30D507C3E4B4
:060741009FFFE49EFE2272
:10074700BB010A89828A83E0F5F0A3E0225006877D
:10075700F009E71922BBFE07E3F5F009E31922893F
:0B076700828A83E493F5F07401932272
:10077200BB0110E58229F582E5833AF583E0F5F0C5
:10078200A3E0225009E92582F886F008E622BBFEA2
:100792000AE92582F8E2F5F008E222E5832AF583E8
:0807A200E993F5F0A3E99322AD
:1007AA00BB010A89828A83F0E5F0A3F0225006F79A
:0F07BA0009A7F01922BBFE06F3E5F009F3192297
:1007C900F8BB0111E58229F582E5833AF583E8F062
:1007D900E5F0A3F0225009E92582C8F608A6F0221F
:0D07E900BBFE09E92582C8F2E5F008F22206
:10107300AC6BAD6CAE6DAF6E7810EC4D4E4F700433
:101083007CA57DA5C3EC13FCED13FDEE13FEEF135E
:10109300FF5010EC64CCFCED644CFDEE644EFEEFAF
:1010A30064CEFFD8DF8C6B8D6C8E6D8F6EEE547FAC
:0D10B300FE228E6B8F6C74A5F56DF56E221C
:100ED7000210C0E493A3F8E493A34003F68001F261
:100EE70008DFF48029E493A3F85407240CC8C3331C
:100EF700C4540F4420C8834004F456800146F6DFEB
:100F0700E4800B010204081020408090135FE47E08
:100F1700019360BCA3FF543F30E509541FFEE493DF
:100F2700A360010ECF54C025E060A840B8E493A3A6
:100F3700FAE493A3F8E493A3C8C582C8CAC583CAD1
:100F4700F0A3C8C582C8CAC583CADFE9DEE780BE89
:01137200007A
:00000001FF
